:020000040800F2
:10000000A0080020A5110008890200088B02000842
:100010008F02000893020008970200080000000009
:100020000000000000000000000000009B0200082B
:100030009D020008000000009F020008A1020008C5
:10004000BF110008BF110008BF110008BF11000850
:10005000BF110008BF110008BF110008BF11000840
:10006000BF110008BF110008BF110008BF11000830
:10007000BF110008BF110008BF110008BF11000820
:10008000BF110008BF110008BF110008BF11000810
:10009000BF110008BF110008BF110008BF11000800
:1000A000BF110008BF110008BF110008BF110008F0
:1000B000BF110008BF110008BF110008BF110008E0
:1000C000BF110008BF110008BF110008BF110008D0
:1000D000BF11000867100008BF110008BF11000819
:1000E000BF110008BF110008BF11000800F002F89E
:1000F00000F05FF80AA090E8000C82448344AAF163
:100100000107DA4501D100F054F8AFF2090EBAE860
:100110000F0013F0010F18BFFB1A43F0010318473B
:10012000A82E0000C82E00000A444FF0000C10F862
:10013000013B13F0070408BF10F8014B1D1108BF65
:1001400010F8015B641E05D010F8016B641E01F805
:10015000016BF9D113F0080F1EBF10F8014BAD1C55
:100160000C1B09D16D1E58BF01F801CBFAD505E073
:1001700014F8016B01F8016B6D1EF9D59142D6D3CD
:10018000704700000023002400250026103A28BFF5
:1001900078C1FBD8520728BF30C148BF0B607047F9
:1001A000642902F06785002070471FB51FBD10B598
:1001B00010BD02F0C9FE1146FFF7F7FF00F01DF871
:1001C00002F0E7FE03B4FFF7F2FF03BC00F0F0FE1D
:1001D00010B500F083FE4FF4A06001F003F8C721D2
:1001E00040F2FF3000F04AFB4FF4E13000F0EFFE48
:1001F00000F048F900F03AFC10BD8EB0FFF7E8FFC0
:100200002CE000F092FC40F2E241154802F0A4FC20
:1002100014480078182802D10020124908701148AB
:1002200080783C2802D100200E4988700D48407823
:100230003C2802D100200B4948700A488378427854
:10024000017809A002F0CEFC0648837842780BA121
:1002500001A802F0D3FC01A800F0B9FAD1E7000030
:10026000002C01406401002020253032643A253002
:1002700032643A25303264200000000025303264B8
:100280002530326400000000704700BFFEE700BF69
:10029000FEE700BFFEE700BFFEE77047704770470C
:1002A000704700000CB50020019000906C48006879
:1002B00040F480306A49086000BF6948006800F473
:1002C000003000900198401C0190009818B90198E6
:1002D000B0F5A06FF1D16248006800F4003010B1B1
:1002E0000120009001E0002000900098012843D1F7
:1002F0005C48006840F010005A49086008460068F1
:1003000020F0030008600846006840F00200086022
:10031000534840685249486008464068486008466B
:10032000406840F4806048600846406820F47C10D3
:1003300048600846406840F4E81048600846006895
:1003400040F08070086000BF4548006800F0007011
:100350000028F9D04248406820F003004049486036
:100360000846406840F00200486000BF3C484068D2
:1003700000F00C000828F9D10CBD10B5FFF792FF72
:1003800010BD10B53648006840F0010034490860DF
:1003900008464068344908403149486008460068CA
:1003A000324908402E4908600846006820F4802041
:1003B00008600846406820F4FE0048604FF41F00C3
:1003C0008860FFF7DAFF4FF000602949086010BD30
:1003D00010B5002100200022214B5B6803F00C01C6
:1003E00021B1042906D0082928D107E0214B224C4D
:1003F000236027E01F4B204C236023E0184B5B68F1
:1004000003F47010164B5B6803F48032022303EB95
:10041000904022B9194B4343174C23600DE0104B19
:100420005B6803F4003323B1144B4343124C236045
:1004300003E0104B4343104C236003E00D4B0E4C84
:10044000236000BF00BF064B5B68C3F303130C4C73
:10045000E15C094B1B68CB40074C236010BD0000DA
:1004600000100240002002400000FFF8FFFFF6FEEF
:1004700008ED00E000127A000000002000093D00B5
:100480000400002008B50121082001F035FA0121FF
:10049000084601F031FA0121EF4801F042F801214C
:1004A000EE4801F03EF83820ADF8000010208DF83D
:1004B000030001208DF802006946E94800F060FF62
:1004C0003821E74801F009F808BD0020E549086037
:1004D0000120E549C1F89401704770B5044608252C
:1004E0001CE004F0800020B10120DE4908390860DA
:1004F00003E00020DB49083908600020D949091FC2
:100500000860012000F003FD6006040E0120D649BA
:10051000C1F8900100F0FBFC681EC5B2002DE0DCC4
:10052000FFF7D3FF70BD10B50446200EFFF7D5FFCF
:10053000C4F30740FFF7D1FFC4F30720FFF7CDFF57
:10054000E0B2FFF7CAFFFFF7C0FF10BD2DE9F0478B
:1005500004460025AA4600260027A846A9464FF4CF
:100560007A70B4FBF0F0C14931F8106035464FF4B1
:100570007A70B4FBF0F100FB11406421B0FBF1F0A4
:10058000BA4931F8100007056420B4FBF0F100FB14
:1005900011400A21B0FBF1F0B44931F810004FEAE4
:1005A00080280A20B4FBF0F100FB1140AF4931F87C
:1005B00010900120AE490860012E01D0022E08D112
:1005C0000020FFF78AFF07EB8570404400EB090A23
:1005D00007E0C5F38700FFF780FF07EB080000EB9B
:1005E000090A5046FFF79FFFBDE8F08710B50246A5
:1005F000002100200121ACE0535C302B53DB535C25
:10060000392B50DC0B4601EBD3746410A1EB44048E
:10061000002C49D0535C303B0A2B44D2DFE803F076
:10062000050B11171D23292F353C0123914C04EB99
:100630000014636037E002238E4C04EB0014636007
:1006400031E004238B4C04EB001463602BE008239F
:10065000884C04EB0014636025E01023854C04EB08
:10066000001463601FE02023824C04EB00146360DD
:1006700019E040237F4C04EB0014636013E08023F7
:100680007C4C04EB001463600DE04FF48073794CF4
:1006900004EB0014636006E04FF40073754C04EB48
:1006A0000014636000BF52E0535C303B0A2B4CD215
:1006B000DFE803F0050C131A21282F363D444FF4D0
:1006C00080636C4C04EB0014A3603EE04FF40063C5
:1006D000684C04EB0014A36037E04FF48053654C82
:1006E00004EB0014A36030E04FF40053614C04EBC2
:1006F0000014A36029E04FF480435E4C04EB001427
:10070000A36022E04FF400435A4C04EB0014A360B2
:100710001BE04FF48033574C04EB0014A36014E04B
:100720004FF40033534C04EB0014A3600DE04FF47E
:100730008023504C04EB0014A36006E04FF4002328
:100740004C4C04EB0014A36000BF00BF401C4B1EC8
:1007500059B20029BFF650AF10BD70B50546002450
:1007600000BF18E0434800EB04100068414901EB6A
:100770000411496808443F4901EB041189680844A1
:100780003C4901EB0411C968084404EB84014900A9
:1007900000FA01F6641C002CE4D055B9002136485B
:1007A00001F04EFF0020324908603046FFF7BBFEE3
:1007B0000CE00121304801F043FF642000F0C0F854
:1007C0003046FFF7B0FE322000F0BAF870BD2DE9D8
:1007D000F04704460025AA46665D681C275CA81CF5
:1007E00014F80080E81C14F80090605D202800D107
:1007F0000026681C205C202800D10027681C205C93
:10080000202800D10027681C205C202800D1002768
:1008100036B92FB9B8F1000F02D1B9F1000F19D0D4
:10082000A6F130004FF47A714843A7F1300101EB93
:10083000C10202EB011100EB8101A8F1300000EBD5
:10084000800001EB4001A9F1300001EB000A5046A5
:10085000FFF77CFEBDE8F0870004300000023000A6
:10086000000C0140948121420080214214000020AC
:10087000A001214254010020002C014030B589B074
:1008800005460C460121C80201F036F8012104207A
:1008900001F032F84FF48070ADF8200018208DF888
:1008A000230003208DF8220008A9444800F068FDC9
:1008B000ADF81850ADF814400020ADF81A00ADF8AE
:1008C000160005A93E4801F053FB7020ADF8040066
:1008D0000120ADF806000020ADF80A00ADF80C00CC
:1008E00001A9374801F081FB19208DF80000002094
:1008F0008DF8010002208DF8020001208DF8030020
:10090000684600F074FC01212D4801F099FE082191
:100910002B4801F0B9FF0121294801F085FF012191
:10092000274801F081FE09B030BD10B501212448EF
:1009300002F043F918B10121214802F04FF910BD2E
:1009400070B504460025641D1E49088800EBD0716F
:10095000B4EB610F0FD800BF0AE01B4830F8151048
:10096000174802F0F9F80A2000F0F5FA681CC5B241
:10097000A542F2D321E01349088800EBD071491059
:10098000A1421AD20F4909888C4216D80D4908880D
:1009900000EBD071C1F347050AE00B4830F81510A1
:1009A000074802F0D9F80A2000F0D5FA681CC5B251
:1009B000044800880A38A842EFDC70BD00080140F6
:1009C000002C01402C01002050000020014601F0C5
:1009D0000F00091101F00F0101EB810251004218D3
:1009E000D0B2704730B501460A2491FBF4F4E2B26C
:1009F0000A2491FBF4F504FB1514E3B203EB021493
:100A0000E0B230BD70B505460C4600F086F9D02046
:100A100000F00FFA00F0E3F9284600F00AFA00F0BF
:100A2000DEF9204600F005FA00F0D9F900F08FF960
:100A300070BD70B50446002500F06FF9D02000F0BD
:100A4000F8F900F0CCF9204600F0F3F900F0C7F90E
:100A500000F063F9D12000F0ECF900F0C0F900F0EB
:100A600012FA054600F073F9284670BD10B500F083
:100A70002DF900210E20FFF7C5FF022000F06BFAD0
:100A800000210F20FFF7BEFF022000F064FA10BD26
:100A90002DE9F05F07460C4615461E46DDE90B9A28
:100AA000DDF828804FF0000B3846FFF79BFF00F081
:100AB000FF0B59460620FFF7A5FF2046FFF792FFE0
:100AC00000F0FF0B59460520FFF79CFF2846FFF773
:100AD00089FF00F0FF0B59460420FFF793FF3046D3
:100AE000FFF780FF00F0FF0B59460220FFF78AFF57
:100AF0004046FFF777FF00F0FF0B59460120FFF754
:100B000081FF4846FFF76EFF00F0FF0B59460020BB
:100B1000FFF778FF5046FFF765FF00F0FF0B5946DF
:100B20000320FFF76FFFBDE8F09F10B50620FFF729
:100B300080FF654948600879FFF748FF62494860CF
:100B40000520FFF776FF60490872087AFFF73EFF3D
:100B50005D4908720420FFF76CFF5B494872487AD0
:100B6000FFF734FF584948720220FFF762FF5649E9
:100B700008700846007800F03F0008700878FFF71A
:100B800025FF514908700120FFF753FF4E49487077
:100B90004878FFF71BFF4C4948700020FFF749FFDA
:100BA000494988708878FFF711FF4749887003200A
:100BB000FFF73FFF44498872887AFFF707FF4249F1
:100BC000887220210E20FFF71DFF1120FFF731FF53
:100BD0003D49C8721220FFF72CFF801100EBC001C5
:100BE00001EB00103849087310BD2DE9F04F0446A1
:100BF0000D46164605F109004FF00C0A90FBFAFB72
:100C00000AFB1B0C0A209CFBF0F0221A4FF0640A2E
:100C100092FBFAFA4FEAE27B02EB9B7B4FEAAB0BCB
:100C200040F26D1E0EFB02BBABEB0A0A4FF4C87B11
:100C300092FBFBFBDA440CEB0C1B0BEBCB0B4FF0EA
:100C4000050E0EEB4B0B4FF00A0E9BFBFEFBD34445
:100C5000A6F1010A0BEB0A09099809304FF00C0ABA
:100C600090FBFAFB0AFB1B070A2097FBF0F0191A0E
:100C70004FF0640A91FBFAFA4FEAE17B01EB9B7BB0
:100C80004FEAAB0B40F26D1E0EFB01BBABEB0A0A49
:100C90004FF4C87B91FBFBFBDA4407EB071B0BEB24
:100CA000CB0B4FF0050E0EEB4B0B4FF00A0E9BFBE0
:100CB000FEFBD344DDF828A0AAF1010A0BEB0A08D9
:100CC000A8EB0900BDE8F08F6401002008B5012100
:100CD000042000F011FE0220ADF8000003208DF882
:100CE000020014208DF8030069467B4800F048FBA1
:100CF0000420ADF8000003208DF8020014208DF8C8
:100D000003006946744800F03BFB08BD052001E084
:100D1000411EC8B20028FBD1704710B502206E49B1
:100D200010310860FFF7F2FF04206B4910310860B2
:100D3000FFF7ECFF0420684914310860FFF7E6FF75
:100D40000220654914310860FFF7E0FF10BD10B5BF
:100D50000420614914310860FFF7D8FF02205E4982
:100D600010310860FFF7D2FF04205B4910310860A2
:100D7000FFF7CCFF10BD10B50220574914310860B1
:100D8000FFF7C4FF0420544914310860FFF7BEFF89
:100D90000220514910310860FFF7B8FF02204E4988
:100DA00014310860FFF7B2FF10BD10B502204A49A8
:100DB00014310860FFF7AAFF04204749103108608A
:100DC000FFF7A4FF0220444910310860FFF79EFF9F
:100DD0000220414914310860FFF798FF10BD10B59B
:100DE000002402203C4914310860FFF78FFF0420E3
:100DF000394910310860FFF789FF02203649103168
:100E00000860FFF783FF07E0601CC4B2FA2C03DD23
:100E1000FFF79DFF002010BD2F480830006800F04C
:100E200004000028F0D102202B4914310860012071
:100E3000F1E770B5044608251BE00220264914316D
:100E40000860FFF763FF04F0800020B1042022490E
:100E50001031086003E004201F4914310860600667
:100E6000040EFFF753FF02201B4910310860FFF703
:100E70004DFF2800A5F10101CDB2DED102201649B7
:100E80001431086070BD70B5082500240420124993
:100E90001031086015E06006040E02200E4914317E
:100EA0000860FFF733FF02200B4910310860FFF79D
:100EB0002DFF09480830006800F0040008B144F034
:100EC00001042800A5F10101CDB2E4D102200249BC
:100ED00014310860204670BD0008014010B56FF065
:100EE000040000F0CEF92E4800682E49B0FBF1F066
:100EF0002D4908700846007800EB4001C1EBC01096
:100F00004FF6FF7101EAC0002849088010BD014674
:100F1000254A12784A434FF0E0235A6100229A6131
:100F20001A46126942F001021A6100BF4FF0E02236
:100F3000106900F001021AB100F48032002AF5D0E5
:100F40004FF0E022126922F001024FF0E0231A6113
:100F500000229A6170470146144A12884A434FF0B2
:100F6000E0235A6100229A611A46126942F0010296
:100F70001A6100BF4FF0E022106900F001021AB1BF
:100F800000F48032002AF5D04FF0E022126922F0FE
:100F900001024FF0E0231A6100229A6170470000BD
:100FA0000000002000127A002E01002030010020F5
:100FB000014600BF704700BF644A128802F0400239
:100FC000002AF9D0C2B2614B1B1D1A80704710B5C0
:100FD00086B00446012144F2040000F08DFC4FF479
:100FE0000070ADF8140003208DF8160018208DF85D
:100FF000170005A9564800F0C3F94FF48060ADF81A
:10100000140004208DF8170005A9514800F0B8F924
:1010100025208DF8000003208DF801008DF80200D6
:1010200001208DF80300684600F0E1F801940020EB
:10103000ADF80800ADF80A00ADF80C00ADF81000EE
:101040000C20ADF80E0001A9404800F0FCFC012284
:1010500040F225513D4800F08EFD01213B4800F053
:101060007EFD06B010BD10B540F22551374800F0A6
:1010700067FE10B3354800F0E3FDC4B23548008880
:1010800000F40040C8B93348008800F4804060B1E3
:101090000A2C03D000202F49088020E02D4800882A
:1010A00040F400402B49088019E00D2C06D1294856
:1010B000008840F480402749088010E025480088D7
:1010C000C0F30D0024490C5422480088401C2149DB
:1010D000088008460088C72801DD0020088010BD70
:1010E00070B51C48008800F40040F0B11948008831
:1010F000C0F30D0519A001F075FD00240CE01648A1
:10110000015D124800F098FD00BF40210F4800F03B
:1011100001FE0128F9D1641CAC42F0D316A001F005
:1011200061FD00200B4908800FE015480068401C55
:101130001349086008460068C821B0FBF1F201FBC2
:10114000120010B90FA001F04DFD70BD0038014034
:101150000008014038010020740100200D0A2075AC
:1011600073617274313AC4FAB7A2CBCDB5C4CFFB68
:10117000CFA2CEAA3A0D0A000D0A0D0A0000000007
:101180003C01002075736172743AC7EBCAE4C8EB86
:10119000CAFDBEDD2CD2D4BBD8B3B5BCFCBDE1CA00
:1011A000F80D0A000948804709480047FEE7FEE7B6
:1011B000FEE7FEE7FEE7FEE7FEE7FEE7FEE7FEE707
:1011C00004480549054A064B7047000083030008A0
:1011D000ED000008A0020020A0080020A0040020CC
:1011E000A004002031490143314A1160704770B5B5
:1011F000002100230F22C47804B32D4C246804F48A
:10120000E064C4F5E064210AC1F10403CA404478F3
:1012100004FA03F18478144021430901254C06782F
:10122000A155047804F01F050124AC4005786D1128
:10123000AD0005F1E025C5F8004109E0047804F0AF
:101240001F050124AC401C4D0678761145F8264058
:1012500070BD1A4A0A400243154B1B1F1A607047A3
:1012600039B1134A121D12680243114B1B1D1A603B
:1012700006E00F4A121D126882430D4B1B1D1A60B7
:101280007047042808D14FF0E021096941F00401BA
:101290004FF0E022116107E04FF0E021096921F0F1
:1012A00004014FF0E0221161704700000000FA05D0
:1012B0000CED00E000E400E080E100E080FFFF1FB3
:1012C00010B50446CC48844208D10121042000F026
:1012D0002DFB0021042000F029FB46E0C748844292
:1012E00008D10121082000F021FB0021082000F096
:1012F0001DFB3AE0C248844208D10121102000F0D1
:1013000015FB0021102000F011FB2EE0BD488442A7
:1013100008D10121202000F009FB0021202000F04D
:1013200005FB22E0B848844208D10121402000F0AA
:10133000FDFA0021402000F0F9FA16E0B34884429B
:1013400008D10121802000F0F1FA0021802000F076
:10135000EDFA0AE0AE48844207D10121801500F081
:10136000E5FA0021A01500F0E1FA10BD10B5012149
:10137000084600F0DBFA0021012000F0D7FA10BD8A
:101380002DE9F0410246002500260020002300241C
:10139000002791F803C00CF00F0591F803C00CF082
:1013A000100CBCF1000F03D091F802C04CEA050507
:1013B00091F800C0BCF1000F31D0146800202BE080
:1013C0004FF0010C0CFA00F3B1F800C00CEA030670
:1013D0009E4220D183004FF00F0C0CFA03F7BC4360
:1013E00005FA03FC4CEA040491F803C0BCF1280F91
:1013F00006D14FF0010C0CFA00FCC2F814C00AE050
:1014000091F803C0BCF1480F05D14FF0010C0CFA64
:1014100000FCC2F810C0401C0828D1D31460B1F8F9
:1014200000C0BCF1FF0F34DD546800202EE000F155
:10143000080C4FF0010808FA0CF3B1F800C00CEAF0
:1014400003069E4221D183004FF00F0C0CFA03F7E4
:10145000BC4305FA03FC4CEA040491F803C0BCF158
:10146000280F05D100F1080C08FA0CF8C2F8148016
:1014700091F803C0BCF1480F07D100F1080C4FF000
:10148000010808FA0CF8C2F81080401C0828CED3D6
:101490005460BDE8F0814FF6FF7101800221817038
:1014A0000421C17070470246002093680B400BB1C5
:1014B000012000E0002070470146886880B2704734
:1014C00002460020D3680B400BB1012000E0002051
:1014D00070470146C86880B270470161704741613A
:1014E00070470AB1016100E041617047C160704717
:1014F0004FF480320A43826181618261826982692C
:10150000704702460020434B18684FF6807318401E
:1015100040EA021008433F4B186070473E49C861DB
:101520007047F0B50A46002300240021002500F092
:101530000046B6F1004F02D1364EF16901E0354E5A
:101540007168C0F3034583B200F44016B6F5401F3E
:1015500008D121F070612F4E766826F070662D4F0D
:101560007E6012E000F48016B6F5801F06D10326D7
:1015700006FA05F4A14341F0706106E0460D36011C
:1015800003FA06F6B14341F0706122B1460D36010F
:1015900003FA06F6314300F00046B6F1004F02D1DF
:1015A0001C4EF16101E01B4E7160F0BD30B50022B0
:1015B0008B071C0F0F2303FA04F2164B08338C1011
:1015C00053F824309343134C08348D1044F82530DD
:1015D00023468C1053F824308C07240F00FA04F4AF
:1015E00023430C4C08348D1044F8253030BD0A4993
:1015F000DC3108607047000000080140000C014029
:10160000001001400014014000180140001C01407E
:10161000002001400000014000002042DF48006837
:1016200040F00100DD49086008464068DC49084098
:10163000DA49486008460068DA490840D749086036
:101640000846006820F4802008600846406820F4BE
:10165000FE0048604FF41F0088607047CF4909685A
:1016600021F48031CD4A11601146096821F48021AE
:101670001160B0F5803F03D0B0F5802F0ED106E0A9
:10168000C649096841F48031C44A116007E0C34982
:10169000096841F4A021C14A116000E000BF00BF09
:1016A000704710B501460022002300204A11012A8C
:1016B00002D1BA4C236806E0022A02D1B74C236A51
:1016C00001E0B64C636A01F01F02012494401C4003
:1016D0000CB1012000E0002010BD38B500200090C2
:1016E0000024002500BF3120FFF7DBFF05460098EE
:1016F000401C00900098B0F5A06F01D0002DF2D0F2
:101700003120FFF7CEFF08B1012400E0002420467D
:1017100038BD01460020A14A106820F0F80040EAD8
:10172000C10010607047A049086070470246002061
:101730009A4B586820F47C1042EA01031843974BF7
:101740005860704798490866704701460020934AE0
:10175000506820F003000843506070478F4840688D
:1017600000F00C007047014600208C4A506820F0C1
:10177000F00008435060704701460020874A5068D7
:1017800020F4E06008435060704701460020834A1F
:10179000506820F4605040EAC1005060704729B1A1
:1017A0007E4A527A02437D4B5A7204E07B4A527A57
:1017B00082437A4B5A7270477B49D8310860704730
:1017C00001460020754A506820F4404008435060AC
:1017D00070470021714A20321170704A82F820103F
:1017E000012802D004280AD104E001216B4A2032EA
:1017F000117005E00521694A2032117000E000BF38
:1018000000BF70476949086070476449096A01432D
:10181000624A11627047654944390860704730B5C3
:1018200000210022002400235C4D6D6805F00C01AE
:1018300021B1042905D0082923D105E05C4D0560BC
:1018400022E05B4D05601FE0544D6D6805F4701299
:10185000524D6D6805F48034022505EB92421CB9A7
:10186000544D554305600BE04C4D6D6805F4003553
:101870001DB1504D5543056002E04D4D5543056087
:1018800002E04B4D056000BF00BF444D6D6805F0A0
:10189000F0010909484D6B5C0568DD4045603F4D2E
:1018A0006D6805F4E061090A434D6B5C4568DD40F5
:1018B00085603A4D6D6805F46051C90A3E4D6B5C18
:1018C0004568DD40C560354D6D6805F44041890BC4
:1018D0003A4D6B5CC568B5FBF3F5056130BD29B1C8
:1018E0002E4A526902432D4B5A6104E02B4A526939
:1018F00082432A4B5A61704729B1284A92690243B0
:10190000264B9A6104E0254A92698243234B9A61EF
:10191000704729B1214AD2690243204BDA6104E0C1
:101920001E4AD26982431D4BDA61704729B11B4AB6
:10193000D2680243194BDA6004E0184AD268824345
:10194000164BDA60704729B1144A12690243134BEF
:101950001A6104E0114A12698243104B1A61704700
:1019600012494039086070470F49C86470470B49F5
:10197000C87170470948406A40F080700749486262
:10198000704701460020054A92680A400AB10120CA
:1019900000E0002070470149887270470010024043
:1019A0000000FFF8FFFFF6FE0000424280044242C2
:1019B00000127A0000093D00400100205001002083
:1019C00010B50446FB48844209D101218803FFF782
:1019D000ADFF00214FF48040FFF7A8FF32E0F6484A
:1019E000844209D101214804FFF7ADFF00214FF4E3
:1019F0000030FFF7A8FF25E0F048844209D101211B
:101A00008804FFF7A0FF00214FF48020FFF79BFF21
:101A100018E0EB48844209D10121C804FFF793FF85
:101A200000214FF40020FFF78EFF0BE0E5488442D1
:101A300008D101210805FFF786FF00214FF480102F
:101A4000FFF781FF10BD2DE9F04786B005460E4631
:101A50000024A24600BFA1460027B08900B100BF04
:101A60002F462C8A4CF6FF700440F08804432C82E9
:101A7000AC894EF6F3100440B0883189084371896F
:101A800008430443AC81AC8A4FF6FF400440B08960
:101A90000443AC8201A8FFF7C2FEC648874202D1C8
:101AA000DDF810A001E0DDF80CA0A88900F40040EA
:101AB00040B10AEBCA0000EB0A1031684900B0FBE4
:101AC000F1F807E00AEBCA0000EB0A103168890060
:101AD000B0FBF1F86420B8FBF0F0040120096421A8
:101AE00001FB1089A88900F4004040B1322000EBCE
:101AF000C900B0FBF1F000F00700044308E0322019
:101B000000EB09106421B0FBF1F000F00F0004437A
:101B10002C8106B0BDE8F0874FF41651016000211A
:101B20008180C18001810C21418100218181704728
:101B300010B502460020108A4FF2FF0318400B88B0
:101B40004C8823438C882343CC882343184310823A
:101B500010BD0021018041808180C180704721B18A
:101B6000828942F40052828104E082894DF6FF733B
:101B70001A4082817047F0B50346002400260025F4
:101B8000002040F66A17B94200D100BF1846C1F3E1
:101B9000421401F01F06012707FA06F5012C01D1B6
:101BA0000C3004E0022C01D1103000E014301AB1E6
:101BB00007682F43076002E00768AF430760F0BD86
:101BC0001AB1838A0B43838202E0838A8B43838228
:101BD0007047028A4FF6F0731A400282028A0A4363
:101BE0000282704782894FF2FF731A408281828994
:101BF0000A438281704721B1828942F002028281C8
:101C000004E082894FF6FD731A4082817047028A90
:101C10004FF6DF731A400282028A0A43028270473B
:101C200021B1028A42F48042028204E0028A4BF629
:101C3000FF731A4002827047C1F308028280704726
:101C400001468888C0F308007047818941F001018E
:101C500081817047028BD2B20283028B42EA012259
:101C600002837047028B02F47F420283028B0A4395
:101C70000283704721B1828A42F02002828204E00E
:101C8000828A4FF6DF731A408282704721B1828ABE
:101C900042F01002828204E0828A4FF6EF731A400B
:101CA0008282704721B1828A42F00802828204E077
:101CB000828A4FF6F7731A408282704721B1828977
:101CC00042F40042828103E08289C2F30E028281E3
:101CD000704721B1828A42F40062828204E0828AE3
:101CE0004FF2FF731A4082827047828A4FF6FB736D
:101CF0001A408282828A0A438282704721B1828A94
:101D000042F00202828204E0828A4FF6FD731A409A
:101D10008282704702460020B1F5007F00D100BFEB
:101D200013880B400BB1012000E00020704701F444
:101D30000072B2F5007F00D100BFCA430280704735
:101D400070B50246002400230025002040F66A16E4
:101D5000B14200D100BFC1F3421501F01F030126BB
:101D600006FA03F3012D02D19689334006E0022DD5
:101D700002D1168A334001E0968A33400C120126C4
:101D800006FA04F41688344013B10CB1012000E0C7
:101D9000002070BD10B50022002340F66A14A14255
:101DA00000D100BF0A1201249440A3B2DC43048096
:101DB00010BD0000003801400044004000480040D1
:101DC000004C00400050004010B50446FE488442DC
:101DD00008D10121C014FFF7A9FD0021E014FFF78D
:101DE000A5FDC4E0B4F1804F08D101210846FFF7FA
:101DF000AAFD00210120FFF7A6FDB8E0F3488442C8
:101E000008D101210220FFF79EFD00210220FFF7EB
:101E10009AFDACE0EE48844208D101210420FFF78E
:101E200092FD00210420FFF78EFDA0E0E9488442E6
:101E300008D101210820FFF786FD00210820FFF7C7
:101E400082FD94E0E448844208D101211020FFF78C
:101E50007AFD00211020FFF776FD88E0DF488442FC
:101E600008D101212020FFF76EFD00212020FFF77F
:101E70006AFD7CE0DA48844208D101214014FFF772
:101E800055FD00216014FFF751FD70E0D5488442F4
:101E900009D10121C804FFF749FD00214FF40020BA
:101EA000FFF744FD63E0D048844209D101210805D1
:101EB000FFF73CFD00214FF48010FFF737FD56E09F
:101EC000CA48844209D101214805FFF72FFD0021AE
:101ED0004FF40010FFF72AFD49E0C548844208D1BD
:101EE00001214020FFF72FFD00214020FFF72BFDAF
:101EF0003DE0C048844208D101218020FFF723FD46
:101F000000218020FFF71FFD31E0BB48844208D14B
:101F100001218015FFF717FD0021A015FFF713FD24
:101F200025E0B648844209D101210804FFF7FEFCF0
:101F300000214FF48030FFF7F9FC18E0B0488442EC
:101F400009D101214804FFF7F1FC00214FF40030D2
:101F5000FFF7ECFC0BE0AB48844208D10121880478
:101F6000FFF7E4FC00214FF48020FFF7DFFC10BDF9
:101F700000220288944B98420ED0994B98420BD085
:101F8000B0F1804F08D0914B984205D0904B9842C9
:101F900002D0904B984204D14FF68F731A404B8871
:101FA0001A438D4B984207D08C4B984204D04FF681
:101FB000FF431A40CB881A4302808B8883850B88A5
:101FC0000385814B98420BD0854B984208D08B4BB0
:101FD000984205D08A4B984202D08A4B984201D150
:101FE0000B7A038601238382704770B50024002298
:101FF0000023058C4FF6FE7635400584028C8388DD
:10200000048B4FF68F752C40B51E2C400D882C4349
:10201000751E2A400D892A434D882A436A4DA842DD
:102020000BD06F4DA84208D0744DA84205D0744D16
:10203000A84202D0734DA84213D14FF6F7752A403B
:102040004D892A434FF6FB752A408D882A434FF667
:10205000FF652B404FF6FF552B408D892B43CD89D3
:102060002B4383800483CD888586028470BD70B540
:10207000002400220023058C4FF6EF7635400584BE
:10208000028C8388048B48F6FF752C404FF6FF4581
:102090002C400D884FF6FF7606EA05252C434FF6B7
:1020A000DF752A400D8906EA05152A434D8806EAA0
:1020B00005152A43444DA84202D0494DA8421DD1DE
:1020C0004FF67F752A404D894FF6FF7606EA0515D3
:1020D0002A434FF6BF752A408D8806EA05152A4324
:1020E0004FF6FF352B404FF2FF752B408D8906EAE6
:1020F00085052B43CD8906EA85052B438380048320
:10210000CD880587028470BD70B5002400220023AD
:10211000058C4FF6FF6635400584028C8388848BDE
:102120004FF68F752C404FF6FC752C400D882C43D4
:102130004FF6FF552A400D894FF6FF7606EA052532
:102140002A434D8806EA05252A431F4DA84202D09E
:10215000234DA8421DD14FF2FF752A404D894FF6FD
:10216000FF7606EA05252A434FF6FF352A408D887B
:1021700006EA05252A434EF6FF752B404DF6FF75FE
:102180002B408D8906EA05152B43CD8906EA0515F6
:102190002B4383808483CD888587028470BD70B58E
:1021A000002200230024058C4EF6FF76354005847E
:1021B000038C8488828B48F6FF752A404FF6FF45D2
:1021C0002A400D8820E00000002C0140000400405F
:1021D00000080040000C00400010004000140040C7
:1021E00000340140004C01400050014000540140C7
:1021F00000180040001C004000200040004001404A
:1022000000440140004801404FF6FF7606EA0525EC
:102210002A434DF6FF752B400D8906EA05352B4301
:102220004D8806EA05352B43FA4DA84202D0FA4DF7
:10223000A84208D14BF6FF752C408D894FF6FF76EA
:1022400006EA85152C4384808283CD88A0F840500F
:10225000038470BD828B4FF2FF331A408283828BDE
:102260004FF6FF7303EA01231A4382837047F0B5E8
:102270000C461546002200210026078C4EF6FF7CF6
:1022800007EA0C070784828B018C4FF6FF7707EA79
:10229000043640F6FF473A404FF6FF7707EA052736
:1022A0003A434FF6FF7707EA03373A43D94FB8422C
:1022B0000ED0D94FB8420BD0B0F1804F08D0D74FD5
:1022C000B84205D0D64FB84202D0D64FB84206D158
:1022D0004DF6FF77394046F48057394305E047F61D
:1022E000FF57394044F48057394382830184F0BD5D
:1022F000828B4FF6F3731A408283828B0A43828368
:102300007047F0B50C461546002200210026078CC8
:102310004FF6FF6C07EA0C070784828B018C4FF69F
:10232000FF7707EA04264FF60C773A404FF6FF771F
:1023300007EA03172F433A43B64FB8420ED0B64FC1
:10234000B8420BD0B0F1804F08D0B44FB84205D09E
:10235000B34FB84202D0B34FB84206D14FF6FF5741
:10236000394046F48077394305E04FF2FF57394052
:1023700044F48077394382830184F0BD028B4FF2AD
:10238000FF331A400283028B4FF6FF7303EA0123E7
:102390001A4302837047F0B50C461546002200210F
:1023A0000026078C4FF6EF7C07EA0C070784028BA8
:1023B000018C4FF6FF7707EA041640F6FF473A40D4
:1023C0004FF6FF7707EA03373A434FF6FF7707EAFE
:1023D00005273A438F4FB8420ED08F4FB8420BD0EB
:1023E000B0F1804F08D08D4FB84205D08C4FB84225
:1023F00002D08C4FB84206D14FF6DF77394046F015
:102400001007394305E04FF65F77394044F0100775
:10241000394302830184F0BD028B4FF6F3731A40F7
:102420000283028B0A4302837047F0B50C461546BF
:1024300000220021068C4FF6FE773E400684028B78
:10244000018C4FF60C7632407E1C06EA03162E43B2
:102450003243704EB0420ED06F4EB0420BD0B0F14E
:10246000804F08D06D4EB04205D06D4EB04202D0C4
:102470006C4EB04206D14FF6FD76314044F0010675
:10248000314305E04FF6F576314044F00106314323
:1024900002830184F0BD70B505460C465D48854257
:1024A0000ED05D4885420BD0B5F1804F08D05B4817
:1024B000854205D05A48854202D05A48854200D10B
:1024C00000E000BF208850B92389A288618828468F
:1024D000FFF7ABFFE1882846FFF79EFF25E0208845
:1024E00004280AD12389A28861882846FFF753FF70
:1024F000E1882846FFF742FF17E0208808280AD124
:102500002389A28861882846FFF7FBFEE1882846D8
:10251000FFF7EEFE09E02389A28861882846FFF7CD
:10252000A6FEE1882846FFF795FE70BD2DE9F04133
:1025300005460C4600260127608808B9022600E0FF
:102540000026A088012801D1022700E00127208869
:10255000A0B92389A28861882846FFF766FFE18831
:102560002846FFF759FF23893A4631462846FFF7A8
:1025700012FFE1882846FFF701FF13E02389A288B4
:1025800061882846FFF707FFE1882846FFF7F6FE37
:1025900023893A4631462846FFF747FFE188284617
:1025A000FFF73AFFBDE8F0810A884B881A438B8811
:1025B0001A43CB881A430B891A434B891A438B89D8
:1025C0001A43A0F8442070474FF6FF718180002124
:1025D0000180C180418001727047002101804180EB
:1025E0008180C180018141818181C1817047002149
:1025F00001804180012181800021C18001817047DB
:102600000021018041808180C180018141818181DF
:1026100070470000002C01400034014000040040DD
:1026200000080040000C004021B1028842F0010285
:10263000028004E002884FF6FE731A400280704761
:1026400031B1B0F8442042F40042A0F8442005E043
:10265000B0F84420C2F30E02A0F8442070471AB12B
:1026600083890B43838102E083898B438381704795
:102670008182704741EA0203A0F8483070471AB1DE
:1026800083890B43838102E083898B438381704775
:1026900001894FF6F8721140018170470A46002106
:1026A00001894FF68F73194011430181704730B58E
:1026B00004460D4629462046FFF7F0FF208940F0EA
:1026C0000700208130BD2DE9F04104460D46164635
:1026D0001F46602D06D13B46012231462046FFF7BA
:1026E0005AFE05E03B46012231462046FFF79DFE9B
:1026F00029462046FFF7D2FF208940F007002081BD
:10270000BDE8F08130B50C4600210189C9B24FF611
:10271000FF7505EA0325154325432943018130BD93
:102720002DE9F04105460E461746984600244346DB
:102730003A4631462846FFF7E5FF2C894FF6F870F8
:10274000044044F007044FF68F70044044F07004D6
:102750002C81BDE8F081F0B504460D4616461F46B3
:102760003B46324629462046FFF7CCFF208940F4FD
:1027700080402081F0BD0185828270470A46002199
:1027800001884FF68F731940114301807047F0B5EF
:102790000C4615461E460021002200230189028BAB
:1027A000038C4FF6F877394021434FF6FC473A4007
:1027B00040F201173A434FF6DD773B404FF6FF7783
:1027C00007EA06172F433B43018102830384F0BDD0
:1027D0000A460021018B4FF68F7319401143018384
:1027E00070470A460021018B48F6FF7319404FF6E7
:1027F000FF7303EA02231943018370470A4600214D
:10280000818B4FF68F7319401143818370470A46BD
:102810000021818B48F6FF7319404FF6FF7303EADE
:10282000022319438183704721B1028842F080025C
:10283000028004E002884FF67F731A4002807047DE
:1028400021B1828842F00402828004E082884FF63F
:10285000FB731A408280704721B1828842F00802DF
:10286000828004E082884FF6F7731A4082807047B6
:1028700021B1828842F00102828004E082884FF612
:10288000FE731A40828070470A460021018B4FF682
:10289000F77319401143018370470A460021018BE9
:1028A0004FF2FF7319404FF6FF7303EA02231943F7
:1028B000018370470A460021818B4FF6F773194058
:1028C0001143818370470A460021818B4FF2FF73C9
:1028D00019404FF6FF7303EA0223194381837047BF
:1028E0000A460021018B4FF6FB7319401143018307
:1028F00070470A460021018B4FF6FF3319404FF60F
:10290000FF7303EA02231943018370470A4600213B
:10291000818B4FF6FB7319401143818370470A4640
:102920000021818B4FF6FF3319404FF6FF7303EA06
:1029300002231943818370470A460021018B4FF619
:102940007F7319401143018370470A460021018BB0
:10295000C1F30E014FF6FF7303EA0223194301830B
:1029600070470A460021818B4FF67F73194011434F
:10297000818370470A460021818BC1F30E014FF617
:10298000FF7303EA02231943818370470A4600213B
:10299000018C4FF6FD7319401143018470470A46BC
:1029A0000021018C4FF6F7731940114301847047E1
:1029B0000A460021018C4FF6DF7319404FF6FF7372
:1029C00003EA02131943018470470A460021018C6F
:1029D0004FF67F7319404FF6FF7303EA0213194352
:1029E000018470470A460021018C4FF6FF531940BD
:1029F0004FF6FF7303EA02231943018470470A4626
:102A00000021018C4FF2FF7319404FF6FF7303EA68
:102A100002231943018470470A460021018C4DF6B8
:102A2000FF7319404FF6FF7303EA02331943018421
:102A3000704730B5002301248C40A3B2048C9C4322
:102A40000484048C02FA01F5ADB22C43048430BD39
:102A500030B5002304248C40A3B2048C9C4304842E
:102A6000048C02FA01F5ADB22C43048430BD70B57C
:102A70000346002000241846183001258D40ACB2D2
:102A80001D8CA5431D8409B1082909D100EB610003
:102A9000056825F0700505600568154305600EE0C2
:102AA0000D1FC5F34E052844056825F4E045056073
:102AB00005684FF6FF7606EA02263543056070BDCD
:102AC00021B1028842F00202028004E002884FF63F
:102AD000FD731A400280704721B1028842F004025F
:102AE000028004E002884FF6FB731A4002807047B0
:102AF00021B1828842F08002828004E082884FF611
:102B00007F731A408280704702884FF6F7731A402D
:102B1000028002880A430280704782884FF68F73D2
:102B20001A40828082880A438280704702894FF669
:102B3000F8731A40028102890A43028170470289B0
:102B40004FF67F731A40028102890A43028170475F
:102B500081847047818570478186704701877047FF
:102B600081877047A0F84010704702884FF6FF43F6
:102B70001A40028002880A43028070470146888E0C
:102B800070470146088F70470146888F704701469D
:102B9000B1F8400070470146888C70470146088DA7
:102BA000704702460020138A0B400BB1012000E061
:102BB00000207047CA430282704730B502460020A9
:102BC00000230024158A05EA0103958905EA01041A
:102BD00013B10CB1012000E0002030BDCA430282D5
:102BE000704770470FB4044910B503AA029800F06B
:102BF00095F910BC5DF814FB340100200FB41CB52E
:102C0000074B06AA7B4469460090059800F06DF9D1
:102C10000020694600F07CF91CBC5DF814FB000044
:102C20000903000070B5044685690068C10601D536
:102C3000302600E02026C00707D070BDD4E901216E
:102C400030469047206A401C20626D1EF6D570BD4C
:102C500070B5044685690078C00707D170BDD4E916
:102C6000012120209047206A401C20626D1EF6D56D
:102C700070BD00002DE9F04106460024106875295A
:102C8000314616A510D0AFF30080002802DA40428A
:102C900013A507E031688A0701D512A502E04907AC
:102CA00004D511A5012401E0AFF3008000210A2220
:102CB00006F1240709E0B0FBF2FCB0FBF2F302FBE3
:102CC0001C00303078541846491C0028F3D12346A4
:102CD0002A463046BDE8F04100F0A8B800000000E8
:102CE0002D0000002B000000200000002DE9F05F07
:102CF000894604464FF0000ADFF824B1FB44C0F8CF
:102D000020A02046E168884700287DD0252806D0ED
:102D1000D4E901219047206A401C2062F1E7002598
:102D20005F462046E16888472028064607DB312EAB
:102D300005D2B81910F8200C08B10543F1E7A8072F
:102D400001D525F00405C4F81CA00027C4F818A07C
:102D50002A2E09D0304600F027F938B304EB870853
:102D6000303EC8F8186019E059F8041B204604EBFF
:102D700087029161E1688847012F064618D1E06912
:102D8000002820DA25F020051DE0D8F8180000EB17
:102D9000800006EB40003038C8F818002046E16893
:102DA0008847064600F000F90028EED1012F0AD02E
:102DB0002E2E08D12046E16888477F1C0646022F48
:102DC00045F02005C4DBA069002803DA404245F045
:102DD0000105A061E80701D025F01005A6B1A6F114
:102DE0004100192802D8203645F400654A4631468C
:102DF000204625604D46FDF7D3F960B1012807D084
:102E0000ED1D25F0070000E007E000F1080978E774
:102E100005F1040975E730467AE7206ABDE8F09FBE
:102E2000B602000070477047704770472DE9F047C1
:102E30000D4699469246044600F12408016888062A
:102E400004D5E06921F01001216000E00120A842D2
:102E500001DD471B00E00027A1697A1902EB090098
:102E6000081AA0612078C00602D42046FFF7DAFED7
:102E7000002608E0D4E901211AF806009047206AEC
:102E8000401C761C20624E45F4DB2078C0060AD533
:102E90002046FFF7C7FE06E0D4E901213020904725
:102EA000206A401C2062381EA7F10107F4DC07E00D
:102EB000D4E9012118F805009047206A401C2062DF
:102EC000281EA5F10105F3DC2046FFF7C1FE20789E
:102ED000000602D50220BDE8F0870120FBE70000D4
:102EE00001694A1C02610878704700B58FB0CDE9CE
:102EF00001310021059105497944CDE903101146BE
:102F00006846FFF7F3FE0FB000BD0000E5FFFFFFCE
:102F10000A6802F8010B0A6070470000074B70B5A1
:102F20000D467B44FFF7E1FF0446284600F008F811
:102F300010B14FF0FF3070BD204670BD91E0FFFF33
:102F4000007B00F080007047754600F029F8AE461F
:102F500005006946534620F00700854618B020B5A5
:102F6000FEF72EF9BDE820404FF000064FF00007B5
:102F70004FF000084FF0000B21F00701AC46ACE821
:102F8000C009ACE8C009ACE8C009ACE8C0098D468E
:102F900070470446AFF300802046FDF713F90000A8
:102FA000004870473C02002030380A2801D2012036
:102FB0007047002070470400000800000000000077
:102FC0000002000100001000E82F000800000020AF
:102FD0005401000028010008D830000854010020E6
:102FE0004C070000840100081184A24A0410090162
:102FF0000203040607080913020112021204120850
:103000001210122012401A801B3920313202320372
:10301000293532053206320732083A092449025A64
:1030200002021A03021A04021A05021A062A1A08D0
:1030300026120A120B120D120F121112131216126F
:10304000191A1C6612241229122F1235123D12452C
:10305000124F1259126612741283129512AA12C1DB
:1030600012DB12FA38141C0143016F01A101DA01CD
:103070001B026502B902180385591E85031803B99E
:10308000121C1B02DA1E1A6F261C1C01FA321AC10E
:103090003A1A95421A744A1A59521A455A1A3562FE
:1030A0001A296A1A20721A197A1A13821A0F8A1A9E
:1030B0000B921A099A1A07A229A829B029B869C43B
:1030C00069D402176E2D01020304040009000607EB
:0830D0000809020406080000D3
:04000005080000ED02
:00000001FF
